:020000040000FA
:100000000C9462000C948A000C948A000C948A0070
:100010000C948A000C948A000C948A000C948A0038
:100020000C948A000C948A000C948A000C948A0028
:100030000C948A000C948A000C948A000C948A0018
:100040000C94FE080C948A000C94CC080C94A6081E
:100050000C948A000C948A000C948A000C948A00F8
:100060000C948A000C948A000000000023002600F3
:10007000290000000008000201000003040700003E
:1000800000000000000000000000250028002B00F8
:1000900000000000240027002A00040404040404D3
:1000A0000404020202020202030303030303010227
:1000B00004081020408001020408102001020408F6
:1000C00010208A0911241FBECFEFD8E0DEBFCDBFBC
:1000D00011E0A0E0B1E0E2EBFBE102C005900D927F
:1000E000AC3CB107D9F722E0ACECB1E001C01D9205
:1000F000A938B207E1F710E0C2E6D0E004C02197CA
:10010000FE010E94AC0CC136D107C9F70E94090A52
:100110000C94D70D0C94000081E00895AF92BF922B
:10012000CF92DF92EF92FF920F931F93CF93DF93C3
:100130006C017B018B01040F151FEB015E01AE18F2
:10014000BF08C017D10759F06991D601ED91FC9114
:100150000190F081E02DC6010995892B79F7C50141
:10016000DF91CF911F910F91FF90EF90DF90CF9093
:10017000BF90AF900895FC01538D448D252F30E042
:10018000842F90E0821B930B541710F0CF960895A4
:1001900001970895FC01918D828D981761F0A28DD1
:1001A000AE0FBF2FB11D5D968C91928D9F5F9F7397
:1001B000928F90E008958FEF9FEF0895FC01918D4D
:1001C000828D981731F0828DE80FF11D858D90E0BA
:1001D00008958FEF9FEF0895FC01918D228D892F57
:1001E00090E0805C9F4F821B91098F73992708953F
:1001F00087ED91E00E94EC0021E0892B09F420E0DA
:10020000822F089580E090E0892B29F00E94F80069
:1002100081110C9400000895FC01A48DA80FB92F42
:10022000B11DA35ABF4F2C91848D90E001968F731E
:100230009927848FA689B7892C93A089B1898C913D
:10024000837080648C93938D848D981306C002888C
:10025000F389E02D80818F7D80830895EF92FF9256
:100260000F931F93CF93DF93EC0181E0888F9B8DD9
:100270008C8D98131AC0E889F989808185FF15C093
:100280009FB7F894EE89FF896083E889F9898081B6
:100290008370806480839FBF81E090E0DF91CF9185
:1002A0001F910F91FF90EF900895F62E0B8D10E0A7
:1002B0000F5F1F4F0F731127E02E8C8D8E110CC016
:1002C0000FB607FCFACFE889F989808185FFF5CF61
:1002D000CE010E940C01F1CFEB8DEC0FFD2FF11D33
:1002E000E35AFF4FF0829FB7F8940B8FEA89FB899E
:1002F00080818062CFCFCF93DF93EC01888D8823FC
:10030000B9F0AA89BB89E889F9898C9185FD03C078
:10031000808186FD0DC00FB607FCF7CF8C9185FF5D
:10032000F2CF808185FFEDCFCE010E940C01E9CF95
:10033000DF91CF910895833081F028F4813099F0D6
:100340008230A9F008958730A9F08830C9F0843050
:10035000B1F4809180008F7D03C0809180008F7701
:1003600080938000089584B58F7784BD089584B507
:100370008F7DFBCF8091B0008F778093B000089580
:100380008091B0008F7DF9CF3FB7F8948091D30171
:100390009091D401A091D501B091D60126B5A89B2A
:1003A00005C02F3F19F00196A11DB11D3FBFBA2F07
:1003B000A92F982F8827BC01CD01620F711D811DC7
:1003C000911D42E0660F771F881F991F4A95D1F74C
:1003D00008950F931F93CF93DF938B01EC016A81F4
:1003E0007B816115710551F0CE01F8010995181650
:1003F000190624F00A80DB81C02DF1CFCE01DF91F8
:10040000CF911F910F9108954F925F926F927F92BB
:100410008F929F92AF92BF92CF92DF92EF92FF9214
:100420000F931F93CF93DF93FC01228133812230FE
:100430003105F4F05B016C012C01F4E04F0E511C0E
:100440007201F701C081D1812097D1F3B501CE01AE
:100450000E94E9014C01FC01028113810115110583
:10046000C1F4E414F50461F7F601978386831486DA
:10047000DF91CF911F910F91FF90EF90DF90CF9080
:10048000BF90AF909F908F907F906F905F904F90B4
:100490000895B501C8010E94E901FC0162807380E2
:1004A000F40113821282FC0113821282B801CE0180
:1004B000F5010995F701181619066CF0D183C08370
:1004C0007E01F2E0EF0EF11C8A819B81009781F49E
:1004D0001B830A831CC0118300837801F2E0EF0EB6
:1004E000F11CF801828193810097D1F08C01CE013B
:1004F000EC01DCCFEC018A819B810097D9F77B82EC
:100500006A827E01F2E0EF0EF11C9BCF8C01F801B4
:10051000828193810097D1F7738262827801F2CF52
:10052000D383C283E8CFCF93DF93EC01E881F981D5
:100530000480F581E02DCE0109951816190644F4C2
:10054000E881F9810288F389E02DCE010995EECF8B
:10055000DF91CF910895DC011496ED91FC911597F0
:100560001C968C911C978823B1F01A962D913C9182
:100570001B97621773077CF01896ED91FC91199701
:10058000261737075CF43097C1F00280F381E02D25
:100590002F5F3F4FF5CF30E020E0F2CF261737072F
:1005A00071F481E01C968C931C971B963C932E93C0
:1005B0001A971996FC93EE931897CF010895F0E0DF
:1005C000E0E0FBCFCF93DF9377FD10C0FC012281E9
:1005D00033816217730754F4EA010E94AB02FC01F5
:1005E000D183C08381E0DF91CF91089580E0FBCF7C
:1005F0000E94AB02009721F0FC0180819181089557
:1006000090E080E00895FC018281938108950F932A
:100610001F93CF93DF938B01EC016A817B8161157E
:10062000710551F0CE01F80109951816190624F04C
:100630000A80DB81C02DF1CFCE01DF91CF911F91D8
:100640000F9108954F925F926F927F928F929F9237
:10065000AF92BF92CF92DF92EF92FF920F931F93D0
:10066000CF93DF93FC012281338122303105F4F0F6
:100670005B016C012C01F4E04F0E511C7201F7017B
:10068000C081D1812097D1F3B501CE010E9407032B
:100690004C01FC010281138101151105C1F4E41420
:1006A000F50461F7F601978386831486DF91CF9175
:1006B0001F910F91FF90EF90DF90CF90BF90AF9080
:1006C0009F908F907F906F905F904F900895B501AD
:1006D000C8010E940703FC0162807380F401138249
:1006E0001282FC0113821282B801CE01F501099534
:1006F000F701181619066CF0D183C0837E01F2E071
:10070000EF0EF11C8A819B81009781F41B830A8381
:100710001CC0118300837801F2E0EF0EF11CF80198
:10072000828193810097D1F08C01CE01EC01DCCF66
:10073000EC018A819B810097D9F77B826A827E01D6
:10074000F2E0EF0EF11C9BCF8C01F80182819381C6
:100750000097D1F7738262827801F2CFD383C2838C
:10076000E8CFCF93DF93EC01E881F9810480F58134
:10077000E02DCE0109951816190644F4E881F98197
:100780000288F389E02DCE010995EECFDF91CF915C
:100790000895CF93DF9377FD10C0FC012281338150
:1007A0006217730754F4EA010E94AB02FC01D18383
:1007B000C08381E0DF91CF91089580E0FBCF0E945C
:1007C000AB02009721F0FC0180819181089590E0B7
:1007D00080E0089581E0089581E0089581E0089522
:1007E00081E00895EF92FF920F931F93CF93DF93D1
:1007F000DC0112960D911C9113970115110561F4FE
:10080000ED91FC910084F185E02DDF91CF911F9156
:100810000F91FF90EF9009947B01EC0184E090E050
:100820000E94B20C2C813D81FC0133832283F18232
:10083000E0829D838C830F5F1F4F1B830A831C867E
:1008400081E0DF91CF911F910F91FF90EF9008957C
:10085000CF92DF92EF92FF920F931F93CF93DF938C
:10086000EB01BA01DC0112964D915C911397C4170C
:10087000D50774F0ED91FC910084F185E02DDF91B6
:10088000CF911F910F91FF90EF90DF90CF9009943F
:10089000209731F4ED91FC910284F385E02DEFCFA8
:1008A0008B017C0184E090E00E94B20C6C01FC01A1
:1008B0001182108213821282BE0161507109C70138
:1008C0000E94AB02D60111961C930E93FC0122816B
:1008D000338113963C932E931297D382C282D70111
:1008E00012968D919C911397019613969C938E93DB
:1008F00012971C961C9281E0DF91CF911F910F916E
:10090000FF90EF90DF90CF9008950F931F93CF93B8
:10091000DF93EC018B0184E090E00E94B20CFC01BB
:1009200013821282118300832C813D81232B91F04D
:10093000EE81FF81938382839F838E838A819B8153
:1009400001969B838A831C8681E0DF91CF911F9162
:100950000F9108959D838C83EFCFEF92FF920F93B9
:100960001F93CF93DF93DC0112960D911C91139787
:100970000115110561F4ED91FC910084F185E02DE4
:10098000DF91CF911F910F91FF90EF9009947B0120
:10099000EC0184E090E00E94B20C2C813D81FC01CE
:1009A00033832283F182E0829D838C830F5F1F4F0C
:1009B0001B830A831C8681E0DF91CF911F910F91E9
:1009C000FF90EF900895CF92DF92EF92FF920F93F6
:1009D0001F93CF93DF93EB01BA01DC0112964D9187
:1009E0005C911397C417D50774F0ED91FC910084C6
:1009F000F185E02DDF91CF911F910F91FF90EF9046
:100A0000DF90CF900994209731F4ED91FC9102840E
:100A1000F385E02DEFCF8B017C0184E090E00E9414
:100A2000B20C6C01FC011182108213821282BE0191
:100A300061507109C7010E94AB02D60111961C9347
:100A40000E93FC012281338113963C932E931297CF
:100A5000D382C282D70112968D919C9113970196F1
:100A600013969C938E9312971C961C9281E0DF91B3
:100A7000CF911F910F91FF90EF90DF90CF9008954D
:100A80000F931F93CF93DF93EC018B0184E090E0F1
:100A90000E94B20CFC0113821282118300832C810C
:100AA0003D81232B91F0EE81FF81938382839F838D
:100AB0008E838A819B8101969B838A831C8681E039
:100AC000DF91CF911F910F9108959D838C83EFCF7C
:100AD000EF92FF920F931F93CF93DF93EC017B0173
:100AE0008A0184E090E00E94B20CBC01DC01119606
:100AF000FC92EE92F8018481958113969C938E93DB
:100B000012978A819B81DC01ED91FC910084F18533
:100B1000E02DDF91CF911F910F91FF90EF900994FD
:100B2000FC0101900020E9F73197AF01481B590BF8
:100B3000BC0187ED91E00C948E00CF93DF930E946F
:100B40009005EC0188E591E00E9490058C0F9D1FB7
:100B5000DF91CF9108958BE591E00C949D0583E69C
:100B600091E00C949D058BE691E00C949D0583E744
:100B700091E00C949D058BE791E00C949D05CF923C
:100B8000DF92EF92FF920F931F93CF93DF9383E84F
:100B900091E00E949D0580918202882309F446C05D
:100BA0008FE991E00E949D052FE7C22E20E0D22E12
:100BB000F60184913BEBE32E30E0F32EF701049134
:100BC000C7EAD0E0FE011491112309F438C0811165
:100BD0000E949B01E12FF0E0EE0FFF1FE859FF4F4D
:100BE000A591B4918C91082391E080E009F490E004
:100BF000092F182FF6018491F701E490FE01C491AA
:100C0000CC23A1F081110E949B01EC2FF0E0EE0FAC
:100C1000FF1FEA57FF4FA591B4918FB7F8949C91AD
:100C2000012B81F0E094E922EC928FBFDF91CF910C
:100C30001F910F91FF90EF90DF90CF90089510E0FB
:100C400000E0D8CFE92AF0CFEF92FF920F931F93E5
:100C5000CF93DF93DC0112962D913C9113971216DE
:100C600013064CF521303105D1F0EC018C819D81CA
:100C7000FC01E280F380008111810E944E0DFD8213
:100C8000EC828A819B8101979B838A831C86C801A1
:100C9000DF91CF911F910F91FF90EF900895ED910B
:100CA000FC910088F189E02DDF91CF911F910F9188
:100CB000FF90EF90099410E000E0E9CFEF92FF92EF
:100CC0000F931F93CF93DF93FC016281738110E038
:100CD00000E016161706E4F4EC0114866130710585
:100CE000F9F0625071090E94AB027C01FC01828123
:100CF0009381FC01008111810E944E0DF701138246
:100D00001282FF82EE828A819B8101979B838A8374
:100D1000C801DF91CF911F910F91FF90EF9008953F
:100D200084819581FC01008111810E944E0D1D82FC
:100D30001C821F821E821B821A82EACF0F931F938E
:100D4000CF93DF9377FD41C0DC0112962D913C914A
:100D5000139762177307CCF56115710551F4ED9186
:100D6000FC910288F389E02DDF91CF911F910F91C3
:100D70000994215031092617370731F4ED91FC9180
:100D80000088F189E02DF0CFEC01615071090E94DB
:100D9000AB02DC011296ED91FC9113970081118159
:100DA0002281338113963C932E931297CF010E9498
:100DB0004E0D8A819B8101979B838A831C86C80183
:100DC000DF91CF911F910F91089510E000E0F7CFD0
:100DD000CF93DF93EC018EE391E0998388838C813C
:100DE0009D81009741F0FC01228133813D832C835A
:100DF0000E944E0DF4CFDF91CF910895CF93DF93F2
:100E0000EC010E94E806CE01DF91CF910C944E0DCB
:100E1000EF92FF920F931F93CF93DF93DC01129613
:100E20002D913C911397121613064CF52130310584
:100E3000D1F0EC018C819D81FC01E280F380008186
:100E400011810E944E0DFD82EC828A819B81019767
:100E50009B838A831C86C801DF91CF911F910F91DC
:100E6000FF90EF900895ED91FC910088F189E02DBD
:100E7000DF91CF911F910F91FF90EF90099410E0B7
:100E800000E0E9CFEF92FF920F931F93CF93DF9390
:100E9000FC016281738110E000E016161706E4F48D
:100EA000EC01148661307105F9F0625071090E94FD
:100EB000AB027C01FC0182819381FC0100811181E4
:100EC0000E944E0DF70113821282FF82EE828A8108
:100ED0009B8101979B838A83C801DF91CF911F91EA
:100EE0000F91FF90EF90089584819581FC0100811E
:100EF00011810E944E0D1D821C821F821E821B8248
:100F00001A82EACF0F931F93CF93DF9377FD41C0EF
:100F1000DC0112962D913C91139762177307CCF563
:100F20006115710551F4ED91FC910288F389E02D72
:100F3000DF91CF911F910F9109942150310926170C
:100F4000370731F4ED91FC910088F189E02DF0CF65
:100F5000EC01615071090E94AB02DC011296ED9127
:100F6000FC911397008111812281338113963C9368
:100F70002E931297CF010E944E0D8A819B8101977B
:100F80009B838A831C86C801DF91CF911F910F91AB
:100F9000089510E000E0F7CFCF93DF93EC018EE0EF
:100FA00091E0998388838C819D81009741F0FC01B9
:100FB000228133813D832C830E944E0DF4CFDF913B
:100FC000CF910895CF93DF93EC010E94CC07CE011F
:100FD000DF91CF910C944E0D8F929F92AF92BF9262
:100FE000CF92DF92EF92FF92CF93DF93CDB7DEB730
:100FF000A1970FB6F894DEBF0FBECDBF0E94F10BD4
:1010000026E030E040E050E00E94490C7093CD01B2
:101010006093CC018CEA91E00E949005C090CC01D5
:10102000D090CD010D2C000CEE08FF08F7FE63C038
:101030006DE287ED91E00E942E0122273327A9015E
:101040002C193D094E095F0919A2CE0181967C0138
:101050009AE0892E912CA12CB12CCA01B901A501CD
:1010600094010E947B0C605DD7016E937D01211578
:1010700031054105510589F7E114F10419F0C70163
:101080000E94900588E591E00E949005E0907E0224
:10109000F0907F02C090CC01D090CD01F701828109
:1010A0009381DC01ED91FC910480F581E02D09959F
:1010B000892B79F0F70182819381DC01ED91FC911C
:1010C0000488F589E02D70E060E00995FC01D38289
:1010D000C28281E0A1960FB6F894DEBF0FBECDBFED
:1010E000DF91CF91FF90EF90DF90CF90BF90AF90C6
:1010F0009F908F900895A701960119A2FE01B196C5
:101100007F018AE0882E912CA12CB12CCA01B90153
:10111000A50194010E947B0C605DD7016E937D0157
:10112000211531054105510589F7A6CF0E94F10B24
:1011300022E030E040E050E00E94490C21E0672BC3
:10114000682B692B09F420E0822F08951F920F92DB
:101150000FB60F9211242F933F934F935F936F938A
:101160007F938F939F93AF93BF93EF93FF9387EDFD
:1011700091E00E940C01FF91EF91BF91AF919F917F
:101180008F917F916F915F914F913F912F910F9030
:101190000FBE0F901F9018951F920F920FB60F92CF
:1011A00011242F938F939F93EF93FF93E091E70187
:1011B000F091E8018081E091ED01F091EE0182FD76
:1011C0001BC090818091F0018F5F8F732091F1019E
:1011D000821741F0E091F001F0E0E952FE4F958F67
:1011E0008093F001FF91EF919F918F912F910F903C
:1011F0000FBE0F901F9018958081F4CF1F920F9211
:101200000FB60F9211242F933F938F939F93AF9319
:10121000BF938091CF019091D001A091D101B09165
:10122000D2013091CE0123E0230F2D3758F50196DE
:10123000A11DB11D2093CE018093CF019093D001C9
:10124000A093D101B093D2018091D3019091D401A8
:10125000A091D501B091D6010196A11DB11D809339
:10126000D3019093D401A093D501B093D601BF913F
:10127000AF919F918F913F912F910F900FBE0F9043
:101280001F90189526E8230F0296A11DB11DD2CFFD
:101290000F931F93CF93DF938C0186E090E00E9421
:1012A000B20CEC018DE090E00E94B20CFC018EE0EB
:1012B00091E09183808315821482178216821382B3
:1012C000128211861086138612861486FB83EA83A7
:1012D0001983088300E812E0D8018D919C91DC010C
:1012E000ED91FC910084F185E02DBE010995F80196
:1012F00080819181DC01ED91FC910480F581E02DEC
:10130000099501979D838C83CE01DF91CF911F9129
:101310000F910895CF93DF93E7EDF1E013821282EE
:1013200088EE93E0A0E0B0E084839583A683B78342
:101330008CE291E09183808385EC90E095878487AF
:1013400084EC90E09787868780EC90E0918B808B8F
:1013500081EC90E0938B828B82EC90E0958B848B78
:1013600086EC90E0978B868B118E128E138E148EE6
:10137000C0E8D2E081E08A838FEF9FEF9C838B836C
:101380008DE090E00E94B20CFC018EE391E091832D
:10139000808315821482178216821382128211862C
:1013A0001086138612861486F983E8838FEB95E006
:1013B0000E94480990937F0280937E028BEA95E019
:1013C0000E94480990937D0280937C028FEA95E009
:1013D0000E94480990937B0280937A0283EB95E008
:1013E0000E944809909379028093780287EB95E0F8
:1013F0000E94480990937702809376028BEB95E0E8
:101400000E9448099093750280937402DF91CF91F6
:101410000895789484B5826084BD84B5816084BD6C
:1014200085B5826085BD85B5816085BD80916E0082
:10143000816080936E0010928100809181008260B3
:1014400080938100809181008160809381008091F0
:1014500080008160809380008091B10084608093DF
:10146000B1008091B00081608093B00080917A00DB
:10147000846080937A0080917A00826080937A0001
:1014800080917A00816080937A0080917A008068F0
:1014900080937A001092C100E091E701F091E80199
:1014A00082E08083E091E301F091E4011082E09119
:1014B000E501F091E60180E180831092EF01E09177
:1014C000EB01F091EC0186E08083E091E901F0917D
:1014D000EA01808180618083E091E901F091EA0175
:1014E000808188608083E091E901F091EA01808148
:1014F00080688083E091E901F091EA0180818F7D2D
:101500008083EBEBF0E02491E7EAF0E0849188231C
:1015100099F090E0880F991FFC01E057FF4FA591CB
:10152000B491FC01EA57FF4F859194918FB7F894DD
:10153000EC91E22BEC938FBF6EE070E080E090E0E6
:101540000E94400C80917E0290917F02AC016CEE73
:1015500077E00E94680540917A0250917B0260EF2B
:1015600073E080917C0290917D020E946805409119
:101570007802509179026EEE73E080917A02909138
:101580007B020E94680540917602509177026CEED2
:1015900073E080917802909179020E9468054091F1
:1015A0007402509175026AEE73E080917602909118
:1015B00077020E94680540917E0250917F0266E9A1
:1015C00078E080917402909175020E9468054091C4
:1015D0007A0250917B026CE870E0809174029091E5
:1015E00075020E94680590E0E92E90E0F92E809146
:1015F000800290918102DC01ED91FC910480F581E3
:10160000E02D0995892B09F469C08091830290919E
:101610008402019621F41092840210928302A09019
:101620008302B09084028091800290918102DC015B
:10163000ED91FC910488F589E02DB5010995EC0147
:10164000E881F98109958A819B81DC01ED91FC910A
:101650000480F581E02D0995892B09F473C010E011
:1016600000E08A819B81DC01ED91FC910480F58191
:10167000E02D0995081719070CF064C08A819B8139
:10168000DC01ED91FC910488F589E02DB801099504
:10169000DC01ED91FC910995882309F450C08A8101
:1016A0009B81DC01ED91FC910488F589E02DB80166
:1016B0000995FC01828193812091830230918402FB
:1016C000A216B30659F421E0A816B90609F420E0E1
:1016D0002093820290938402809383020E94C4012B
:1016E0002B013C0188EE882E83E0982EA12CB12C92
:1016F0000E94C4016419750986099709683E734000
:1017000081059105A8F3F1E08F1A9108A108B108AD
:1017100028EE420E23E0521E611C711C81149104BC
:10172000A104B10429F7E114F10409F460CF0E9487
:10173000F800882309F45BCF0E94000058CF0F5FA8
:101740001F4F8FCF8C819D81B7CF8F929F92AF9289
:10175000BF92CF92DF92EF92FF92CF93DF93EC0193
:10176000688179818A819B81611571058105910567
:1017700021F464E279ED8BE597E02DE133EF41E070
:1017800050E00E94490C49015A019B01AC01A7EAB3
:10179000B1E40E94680C6B017C01ACEEB4EFA501D2
:1017A00094010E94760CC60ED71EE81EF91EF7FEA5
:1017B00006C081E0C81AD108E10880E8F80AC882AA
:1017C000D982EA82FB82C701B6019F77DF91CF9170
:1017D000FF90EF90DF90CF90BF90AF909F908F9051
:1017E00008958F929F92AF92BF92CF92DF92EF9225
:1017F000FF9260910001709101018091020190912E
:101800000301611571058105910521F464E279ED0B
:101810008BE597E02DE133EF41E050E00E94490C69
:1018200049015A019B01AC01A7EAB1E40E94680C8E
:101830006B017C01ACEEB4EFA50194010E94760C23
:10184000C60ED71EE81EF91EF7FE06C081E0C81AB4
:10185000D108E10880E8F80AC0920001D0920101A5
:10186000E0920201F0920301C701B6019F77FF9059
:10187000EF90DF90CF90BF90AF909F908F900895A2
:101880006093000170930101809302019093030122
:101890000895052E97FB1EF400940E94600C57FDDE
:1018A00007D00E947B0C07FC03D04EF40C94600C14
:1018B00050954095309521953F4F4F4F5F4F08957C
:1018C00090958095709561957F4F8F4F9F4F0895AC
:1018D0000E949D0CA59F900DB49F900DA49F800D1C
:1018E000911D11240895B7FF0C94680C0E94680C98
:1018F000821B930B0895A1E21A2EAA1BBB1BFD01AC
:101900000DC0AA1FBB1FEE1FFF1FA217B307E407DE
:10191000F50720F0A21BB30BE40BF50B661F771F36
:10192000881F991F1A9469F7609570958095909516
:101930009B01AC01BD01CF010895A29FB001B39FEF
:10194000C001A39F700D811D1124911DB29F700DC8
:10195000811D1124911D0895EE0FFF1F0590F49134
:10196000E02D09940F931F93CF93DF93823091055D
:1019700010F482E090E0E0918702F091880230E07C
:1019800020E0B0E0A0E0309799F42115310509F48A
:101990004AC0281B390B24303105D8F58A819B8138
:1019A0006115710589F1FB0193838283FE0111C0EA
:1019B000408151810281138148175907E0F048178F
:1019C000590799F4109761F012960C931297139699
:1019D0001C933296CF01DF91CF911F910F91089503
:1019E0000093870210938802F4CF2115310551F03E
:1019F0004217530738F0A901DB019A01BD01DF014D
:101A0000F801C1CFEF01F9CF90938802809387024C
:101A1000CDCFFE01E20FF31F819391932250310944
:101A200039832883D7CF2091850230918602232BDA
:101A300041F42091060130910701309386022093F2
:101A4000850220910401309105012115310541F4F1
:101A50002DB73EB74091080150910901241B350B69
:101A6000E0918502F0918602E217F307A0F42E1BA5
:101A70003F0B2817390778F0AC014E5F5F4F2417F2
:101A8000350748F04E0F5F1F509386024093850242
:101A9000819391939FCFF0E0E0E09CCFCF93DF93D1
:101AA0000097E9F0FC01329713821282A09187021D
:101AB000B0918802ED0130E020E01097A1F4208180
:101AC0003181820F931F2091850230918602281761
:101AD000390709F061C0F0938602E0938502DF9137
:101AE000CF910895EA01CE17DF07E8F54A815B81BF
:101AF0009E0141155105B1F7E901FB83EA83499144
:101B00005991C40FD51FEC17FD0761F480819181B5
:101B10000296840F951FE9019983888382819381BE
:101B20009B838A83F0E0E0E012968D919C9113975D
:101B30000097B9F52D913C911197CD010296820F36
:101B4000931F20918502309186022817390739F6B4
:101B5000309751F51092880210928702B093860256
:101B6000A0938502BCCFD383C28340815181840F6F
:101B7000951FC817D90761F44E5F5F4F888199811F
:101B8000480F591F518340838A819B8193838283AD
:101B90002115310509F0B0CFF0938802E093870258
:101BA0009ECFFD01DC01C0CF13821282D7CFF89403
:101BB000FFCF01000000000089028000000000004B
:101BC000CC07E2070303E3044005AD04C903820721
:101BD00042070807DF03B1032203000000002E01C3
:101BE0008E00BB007B01EC00CA00DE00000000009C
:101BF000E806FE06030328048504F203E2029E06BB
:101C00005E062406F802930204020D0A0053746172
:101C1000746520310053746174652032005374611F
:101C2000746520330053746174652034005374610B
:101C30007465203500537461746520302C20616E0A
:101C40006F6E796D6F75732066756E6374696F6EF4
:101C50000045786563757465204F6E636500547246
:101C6000616E736974696F6E696E6720746F20723C
:0E1C7000616E646F6D207374617465200000F6
:107E0000112484B714BE81FFF0D085E080938100F7
:107E100082E08093C00088E18093C10086E0809377
:107E2000C20080E18093C4008EE0C9D0259A86E02C
:107E300020E33CEF91E0309385002093840096BBD3
:107E4000B09BFECF1D9AA8958150A9F7CC24DD24C4
:107E500088248394B5E0AB2EA1E19A2EF3E0BF2EE7
:107E6000A2D0813461F49FD0082FAFD0023811F036
:107E7000013811F484E001C083E08DD089C08234E0
:107E800011F484E103C0853419F485E0A6D080C0E4
:107E9000853579F488D0E82EFF2485D0082F10E0AE
:107EA000102F00270E291F29000F111F8ED06801E7
:107EB0006FC0863521F484E090D080E0DECF843638
:107EC00009F040C070D06FD0082F6DD080E0C81688
:107ED00080E7D80618F4F601B7BEE895C0E0D1E017
:107EE00062D089930C17E1F7F0E0CF16F0E7DF06D8
:107EF00018F0F601B7BEE89568D007B600FCFDCFD4
:107F0000A601A0E0B1E02C9130E011968C91119780
:107F100090E0982F8827822B932B1296FA010C0160
:107F200087BEE89511244E5F5F4FF1E0A038BF0790
:107F300051F7F601A7BEE89507B600FCFDCF97BE46
:107F4000E89526C08437B1F42ED02DD0F82E2BD052
:107F50003CD0F601EF2C8F010F5F1F4F84911BD097
:107F6000EA94F801C1F70894C11CD11CFA94CF0C13
:107F7000D11C0EC0853739F428D08EE10CD085E9AC
:107F80000AD08FE07ACF813511F488E018D01DD067
:107F900080E101D065CF982F8091C00085FFFCCF94
:107FA0009093C60008958091C00087FFFCCF809118
:107FB000C00084FD01C0A8958091C6000895E0E648
:107FC000F0E098E1908380830895EDDF803219F02E
:107FD00088E0F5DFFFCF84E1DECF1F93182FE3DFCA
:107FE0001150E9F7F2DF1F91089580E0E8DFEE27F6
:047FF000FF270994CA
:027FFE00040479
:00000001FF
