:020000040000FA
:100000000C949E000C94C6000C94C6000C94C60080
:100010000C94C6000C94C6000C94C6000C94C60048
:100020000C94C6000C94C6000C94C6000C94C60038
:100030000C94C6000C94C6000C94C6000C94C60028
:100040000C940A040C94C6000C94D8030C94B203CC
:100050000C94C6000C94C6000C94C6000C94C60008
:100060000C94C6000C94C600206C69676874204F1D
:100070004E00206C69676874204F46460A00436151
:100080006C6C20726567697374657265642C20708E
:100090006C6561736520776169742061206C697497
:1000A000746C652074696D652E00000000002400EA
:1000B00027002A0000000000250028002B005374B0
:1000C000617274696E67207468652046696E697430
:1000D00065205374617465204D616368696E652E97
:1000E0002E2E0A0000000000230026002900040430
:1000F00004040404040402020202020203030303D0
:1001000003030102040810204080010204081020AB
:100110000102040810200000000800020100000392
:100120000407000000000000000041637469766568
:100130002073746174653A200000540411241FBEBA
:10014000CFEFD8E0DEBFCDBF11E0A0E0B1E0E0E14D
:10015000F1E102C005900D92A233B107D9F721E079
:10016000A2E3B1E001C01D92A53FB207E1F710E0A4
:10017000CEE9D0E004C02197FE010E945B07CD3993
:10018000D107C9F70E9493040C9486080C940000D0
:10019000AF92BF92CF92DF92EF92FF920F931F9395
:1001A000CF93DF936C017B018B01040F151FEB01D3
:1001B0005E01AE18BF08C017D10759F06991D6018A
:1001C000ED91FC910190F081E02DC6010995892BFC
:1001D00079F7C501DF91CF911F910F91FF90EF90BB
:1001E000DF90CF90BF90AF900895FC01538D448D68
:1001F000252F30E0842F90E0821B930B541710F0D2
:10020000CF96089501970895FC01918D828D9817DE
:1002100061F0A28DAE0FBF2FB11D5D968C91928DB6
:100220009F5F9F73928F90E008958FEF9FEF0895E7
:10023000FC01918D828D981731F0828DE80FF11DB0
:10024000858D90E008958FEF9FEF0895FC01918DCB
:10025000228D892F90E0805C9F4F821B91098F73C4
:10026000992708958FE391E00E94260121E0892BD0
:1002700009F420E0822F089580E090E0892B29F096
:100280000E94320181110C9400000895FC01A48D9C
:10029000A80FB92FB11DA35ABF4F2C91848D90E0A8
:1002A00001968F739927848FA689B7892C93A0898B
:1002B000B1898C91837080648C93938D848D981315
:1002C00006C00288F389E02D80818F7D80830895A8
:1002D000EF92FF920F931F93CF93DF93EC0181E096
:1002E000888F9B8D8C8D98131AC0E889F98980813D
:1002F00085FF15C09FB7F894EE89FF896083E88970
:10030000F98980818370806480839FBF81E090E061
:10031000DF91CF911F910F91FF90EF900895F62EEE
:100320000B8D10E00F5F1F4F0F731127E02E8C8D88
:100330008E110CC00FB607FCFACFE889F9898081CD
:1003400085FFF5CFCE010E944601F1CFEB8DEC0F7A
:10035000FD2FF11DE35AFF4FF0829FB7F8940B8FEA
:10036000EA89FB8980818062CFCF0F931F93CF935F
:10037000DF938C01D0E0C0E0F801EC0FFD1F649129
:10038000662341F08FE391E00E946801892B11F010
:100390002196F2CFCE01DF91CF911F910F91089559
:1003A000CF93DF93EC01888D8823B9F0AA89BB89AC
:1003B000E889F9898C9185FD03C0808186FD0DC097
:1003C0000FB607FCF7CF8C9185FFF2CF808185FFB8
:1003D000EDCFCE010E944601E9CFDF91CF91089584
:1003E000833081F028F4813099F08230A9F00895AB
:1003F0008730A9F08830C9F08430B1F48091800052
:100400008F7D03C0809180008F7780938000089556
:1004100084B58F7784BD089584B58F7DFBCF80919F
:10042000B0008F778093B00008958091B0008F7DE9
:10043000F9CF1F93CF93DF93282F30E0F901EA5EC5
:10044000FE4F8491F901EE5FFE4FD491F901E25124
:10045000FF4FC491CC23A9F0162F81110E94F00107
:10046000EC2FF0E0EE0FFF1FEC54FF4FA591B4917D
:100470008FB7F894EC91111108C0D095DE23DC936E
:100480008FBFDF91CF911F910895DE2BF8CFCF93CF
:10049000DF9390E0FC01EE5FFE4F249182519F4F6D
:1004A000FC0184918823D1F090E0880F991FFC0112
:1004B000E655FF4FA591B491FC01EC54FF4FC59157
:1004C000D491623071F49FB7F8943C91822F80955B
:1004D00083238C93E8812E2B28839FBFDF91CF91BC
:1004E00008958FB7F894EC912E2B2C938FBFF6CFF5
:1004F0002FB7F894609137017091380180913901DC
:1005000090913A012FBF0895E091DF01F091E00151
:1005100081810895E091DF01F091E00181810895EA
:10052000E091DF01F091E00181810895FC010190EB
:100530000020E9F73197AF01481B590BBC018FE34D
:1005400091E00C94C800CF93DF930E94B501EC01B9
:1005500088E191E00E9496028C0F9D1FDF91CF9160
:1005600008958EE790E00C94A302E091DF01F091F2
:10057000E00184899589009711F00E94960282E734
:1005800090E00C94A302E091DF01F091E0018489F6
:100590009589009711F00E94960288E690E00C94ED
:1005A000A3020F931F93CF93DF93D82FC62F8A01F7
:1005B00088E090E00E946107FC0188E0DF011D9265
:1005C0008A95E9F78091E6019091E701892BB9F4CA
:1005D000F093E701E093E601F093E901E093E8018D
:1005E00013830283D083C1838091E50191E0980F4A
:1005F0009093E501DF91CF911F910F910895A09104
:10060000E801B091E9011796FC93EE931697E4CFB9
:100610000F931F93CF93DF93C82FD62F8A018FE0BC
:1006200090E00E946107FC018FE0DF011D928A9536
:10063000E9F78FEF9FEFDC0183839483A583B68373
:100640008091EB019091EC01892BF1F4F093EC0196
:10065000E093EB01F093EE01E093ED01C283D183CF
:10066000148703871782108611861286A091E101F4
:10067000B091E201109789F08C91C81771F05696ED
:100680000D90BC91A02DF6CFA091ED01B091EE019F
:100690001E96FC93EE931D97DDCF5996FC93EE9337
:1006A00058978091EA0191E0980F9093EA01DF91C9
:1006B000CF911F910F9108958F929F92AF92BF9209
:1006C000EF92FF920F931F93CF93DF93EC014A01B8
:1006D0005B0179018AE190E00E946107FC018AE1F7
:1006E000DF011D928A95E9F78091E1019091E20185
:1006F000892B51F5F093E201E093E101F093E001E1
:10070000E093DF01F093E401E093E301F786E686EE
:10071000118B008B138A128AD58BC48B82829382B1
:10072000A482B58216821782108611868091DC0120
:100730008083DF91CF911F910F91FF90EF90BF9039
:10074000AF909F908F9008958091DC01A091E3017C
:10075000B091E4015796FC93EE9356978F5F809388
:10076000DC01D0CF1F920F920FB60F9211242F935E
:100770003F934F935F936F937F938F939F93AF9329
:10078000BF93EF93FF938FE391E00E944601FF91A7
:10079000EF91BF91AF919F918F917F916F915F91F9
:1007A0004F913F912F910F900FBE0F901F90189572
:1007B0001F920F920FB60F9211242F938F939F9336
:1007C000EF93FF93E0914F01F09150018081E09110
:1007D0005501F091560182FD1BC090818091580116
:1007E0008F5F8F7320915901821741F0E09158017A
:1007F000F0E0E15CFE4F958F80935801FF91EF91FF
:100800009F918F912F910F900FBE0F901F90189571
:100810008081F4CF1F920F920FB60F9211242F9365
:100820003F938F939F93AF93BF93809137019091A4
:100830003801A0913901B0913A013091360123E09D
:10084000230F2D3758F50196A11DB11D20933601B8
:100850008093370190933801A0933901B0933A0106
:100860008091320190913301A0913401B091350112
:100870000196A11DB11D8093320190933301A09385
:100880003401B0933501BF91AF919F918F913F910A
:100890002F910F900FBE0F901F90189526E8230FF1
:1008A0000296A11DB11DD2CFEFE3F1E013821282B7
:1008B00088EE93E0A0E0B0E084839583A683B783BD
:1008C0008AE091E09183808385EC90E0958784872E
:1008D00084EC90E09787868780EC90E0918B808B0A
:1008E00081EC90E0938B828B82EC90E0958B848BF3
:1008F00086EC90E0978B868B118E128E138E148E61
:10090000ECEDF1E0128211821482138216821582BC
:10091000108617821386128615861486108A17860B
:10092000128A118A0895789484B5826084BD84B552
:10093000816084BD85B5826085BD85B5816085BDDA
:1009400080916E00816080936E0010928100809192
:10095000810082608093810080918100816080931A
:100960008100809180008160809380008091B1003F
:1009700084608093B1008091B00081608093B0006A
:1009800080917A00846080937A0080917A008260FE
:1009900080937A0080917A00816080937A008091C0
:1009A0007A00806880937A001092C10062E082E051
:1009B0000E94470261E08CE00E94470261E08BE008
:1009C0000E94470261E08AE00E944702E0914F01E5
:1009D000F091500182E08083E0914B01F0914C0155
:1009E0001082E0914D01F0914E0180E180831092E0
:1009F0005701E0915301F091540186E08083E0912A
:100A00005101F0915201808180618083E091510118
:100A1000F0915201808188608083E0915101F091D2
:100A20005201808180688083E0915101F0915201F0
:100A300080818F7D80838EEB90E00E94A30205EB86
:100A400012E023EC32E040E157E260E070E08BE13D
:100A500091E00E945C0323EC32E040E050E0BA01F8
:100A60008FE191E00E945C0323EC32E040ED57E01F
:100A700060E070E085E291E00E945C0310E000E03D
:100A800021EB32E048E853E160E070E08CE291E075
:100A90000E945C034DE351E060E080E00E940803A7
:100AA0004CE351E061E081E00E9408034CE351E037
:100AB00062E082E00E9408034BE351E060E082E0E4
:100AC0000E94080340E952E061E080E00E94D10208
:100AD0004AE852E060E082E00E94D10244E852E03D
:100AE00062E083E00E94D10288E090E00E9461070A
:100AF000FC0188E0DF011D928A95E9F78091E6010B
:100B00009091E701892B09F0C0C0F093E701E093D1
:100B1000E601F093E901E093E8018EE391E095832B
:100B2000848381E0808383E081838091E5018F5F0E
:100B30008093E5017724739488248A94982C540137
:100B400090EFE92E90E0F92E20E0C22E20E0D22E88
:100B5000E8E1F1E08491E4E0F1E0C491F701D4919F
:100B6000DD2309F49BC081110E94F001ED2FF0E01C
:100B7000EE0FFF1FEC51FF4FA591B4918C91C8234C
:100B800031E020E009F430E0832F922FF1E08F274D
:100B9000817080933E01C091E601D091E701E09120
:100BA000DF01F091E001209709F4FAC0988180817B
:100BB0009813F2C082819381A481B581892B8A2BFD
:100BC0008B2BC1F00E947802E091DF01F091E001EF
:100BD0000285138524853585601B710B820B930B71
:100BE00002811381248135810617170728073907E9
:100BF00008F47182EA81FB81309709F052C0EC81E0
:100C0000FD818081882309F4C7C0E091DF01F09164
:100C1000E00186819781A085B185892B8A2B8B2B5A
:100C200009F041C0E091DF01F091E0010088F18915
:100C3000E02D309709F06AC08091DF019091E001CA
:100C4000DC0158962D913C91232B09F46FC0E09163
:100C5000EB01F091EC01309709F468C03281DC01BE
:100C60002C9132130EC0A385B4852181223009F462
:100C70005BC008F04DC0222309F456C0213009F4AE
:100C800051C00584F685E02DE6CFA091E801B09132
:100C9000E9011796FC93EE9316973BCF90E080E026
:100CA00075CF0995AFCF0E947802E091DF01F091F6
:100CB000E0010285138524853585601B710B820B4D
:100CC000930B068117812085318560177107820794
:100CD000930708F0A7CF60913D018AE00E941902B6
:100CE00060913C018CE00E94190260913B018BE015
:100CF0000E941902C114D10409F42ACF0E943201C2
:100D0000882309F425CF0E9400001ACF099594CFBB
:100D1000253008F0B6CF1C92108283829482A5827F
:100D2000B682AFCF2C93ADCF1C92ABCF8981C0914F
:100D3000E101D091E201209739F09881891721F0E3
:100D40000E88DF89C02DF7CFD093E001C093DF017B
:100D50000E9478026A877B878C879D87E091DF01FC
:100D6000F091E00111820684F785E02D309709F0BB
:100D700009958AE291E00E94B501E091DF01F091CE
:100D8000E00184899589009711F00E94960288E11C
:100D900091E00E9496029FCF0E80DF81C02DFFCE92
:100DA0000288F389E02D309709F00995E091DF0181
:100DB000F091E001808D918D892B09F48CCFC09149
:100DC000EB01D091EC01209709F485CFE091DF0190
:100DD000F091E0019A81808198130AC00B851C85EF
:100DE0008981823049F058F0833061F08430A1F17C
:100DF0000D84DE85C02DE7CFF8011082F9CFD80130
:100E00007C92F6CF8881811109C0F80170820E941E
:100E100078026B837C838D839E8378820E94780224
:100E20002B813C814D815E81621B730B840B950B82
:100E30002F80388449845A84261637064806590676
:100E4000B8F688818823A1F2121613061406150637
:100E50007CF6D8011C92CCCF8881811107C00E94FA
:100E600078026B837C838D839E8378820E947802D4
:100E70002B813C814D815E81621B730B840B950B32
:100E80002F80388449845A84261637064806590626
:100E900008F0AECF8881882309F4AACF1216130672
:100EA000140615060CF0A4CFF80170828B829C8288
:100EB000AD82BE829DCFEE0FFF1F0590F491E02D15
:100EC00009940F931F93CF93DF938230910510F411
:100ED00082E090E0E091F301F091F40130E020E055
:100EE000B0E0A0E0309799F42115310509F44AC02B
:100EF000281B390B24303105D8F58A819B81611577
:100F0000710589F1FB0193838283FE0111C0408149
:100F100051810281138148175907E0F0481759079A
:100F200099F4109761F012960C93129713961C93F4
:100F30003296CF01DF91CF911F910F9108950093C9
:100F4000F3011093F401F4CF2115310551F042174C
:100F5000530738F0A901DB019A01BD01DF01F80157
:100F6000C1CFEF01F9CF9093F4018093F301CDCF7E
:100F7000FE01E20FF31F81939193225031093983CF
:100F80002883D7CF2091F1013091F201232B41F436
:100F900020910201309103013093F2012093F1017D
:100FA00020910001309101012115310541F42DB747
:100FB0003EB74091040150910501241B350BE0918F
:100FC000F101F091F201E217F307A0F42E1B3F0BA1
:100FD0002817390778F0AC014E5F5F4F24173507AB
:100FE00048F04E0F5F1F5093F2014093F10181933F
:100FF00091939FCFF0E0E0E09CCFCF93DF930097F9
:10100000E9F0FC01329713821282A091F301B091B2
:10101000F401ED0130E020E01097A1F4208131814E
:10102000820F931F2091F1013091F20128173907A7
:1010300009F061C0F093F201E093F101DF91CF91EB
:101040000895EA01CE17DF07E8F54A815B819E012A
:1010500041155105B1F7E901FB83EA8349915991A3
:10106000C40FD51FEC17FD0761F4808191810296B2
:10107000840F951FE90199838883828193819B83E3
:101080008A83F0E0E0E012968D919C91139700978F
:10109000B9F52D913C911197CD010296820F931FC6
:1010A0002091F1013091F2012817390739F6309774
:1010B00051F51092F4011092F301B093F201A09354
:1010C000F101BCCFD383C28340815181840F951F2E
:1010D000C817D90761F44E5F5F4F88819981480F27
:1010E000591F518340838A819B8193838283211579
:1010F000310509F0B0CFF093F401E093F3019ECFF6
:10110000FD01DC01C0CF13821282D7CFF894FFCF4C
:101110000000F5018000000000006801C800F50033
:10112000D0012601040118010D0A00524544004770
:101130005245454E0059454C4C4F570043414C4C8D
:021140000000AD
:107E0000112484B714BE81FFF0D085E080938100F7
:107E100082E08093C00088E18093C10086E0809377
:107E2000C20080E18093C4008EE0C9D0259A86E02C
:107E300020E33CEF91E0309385002093840096BBD3
:107E4000B09BFECF1D9AA8958150A9F7CC24DD24C4
:107E500088248394B5E0AB2EA1E19A2EF3E0BF2EE7
:107E6000A2D0813461F49FD0082FAFD0023811F036
:107E7000013811F484E001C083E08DD089C08234E0
:107E800011F484E103C0853419F485E0A6D080C0E4
:107E9000853579F488D0E82EFF2485D0082F10E0AE
:107EA000102F00270E291F29000F111F8ED06801E7
:107EB0006FC0863521F484E090D080E0DECF843638
:107EC00009F040C070D06FD0082F6DD080E0C81688
:107ED00080E7D80618F4F601B7BEE895C0E0D1E017
:107EE00062D089930C17E1F7F0E0CF16F0E7DF06D8
:107EF00018F0F601B7BEE89568D007B600FCFDCFD4
:107F0000A601A0E0B1E02C9130E011968C91119780
:107F100090E0982F8827822B932B1296FA010C0160
:107F200087BEE89511244E5F5F4FF1E0A038BF0790
:107F300051F7F601A7BEE89507B600FCFDCF97BE46
:107F4000E89526C08437B1F42ED02DD0F82E2BD052
:107F50003CD0F601EF2C8F010F5F1F4F84911BD097
:107F6000EA94F801C1F70894C11CD11CFA94CF0C13
:107F7000D11C0EC0853739F428D08EE10CD085E9AC
:107F80000AD08FE07ACF813511F488E018D01DD067
:107F900080E101D065CF982F8091C00085FFFCCF94
:107FA0009093C60008958091C00087FFFCCF809118
:107FB000C00084FD01C0A8958091C6000895E0E648
:107FC000F0E098E1908380830895EDDF803219F02E
:107FD00088E0F5DFFFCF84E1DECF1F93182FE3DFCA
:107FE0001150E9F7F2DF1F91089580E0E8DFEE27F6
:047FF000FF270994CA
:027FFE00040479
:00000001FF
