:020000040000FA
:100000000C9462000C948A000C948A000C948A0070
:100010000C948A000C948A000C948A000C948A0038
:100020000C948A000C948A000C948A000C948A0028
:100030000C948A000C948A000C948A000C948A0018
:100040000C9451080C948A000C941F080C94F90726
:100050000C948A000C948A000C948A000C948A00F8
:100060000C948A000C948A000000000023002600F3
:10007000290000000008000201000003040700003E
:1000800000000000000000000000250028002B00F8
:1000900000000000240027002A00040404040404D3
:1000A0000404020202020202030303030303010227
:1000B00004081020408001020408102001020408F6
:1000C0001020DD0811241FBECFEFD8E0DEBFCDBF6A
:1000D00011E0A0E0B1E0EEEBFAE102C005900D9274
:1000E000A23BB107D9F722E0A2EBB1E001C01D921B
:1000F000A337B207E1F710E0C2E6D0E004C02197D1
:10010000FE010E94320CC136D107C9F70E94740962
:100110000C945D0D0C94000081E00895AF92BF92A5
:10012000CF92DF92EF92FF920F931F93CF93DF93C3
:100130006C017B018B01040F151FEB015E01AE18F2
:10014000BF08C017D10759F06991D601ED91FC9114
:100150000190F081E02DC6010995892B79F7C50141
:10016000DF91CF911F910F91FF90EF90DF90CF9093
:10017000BF90AF900895FC01538D448D252F30E042
:10018000842F90E0821B930B541710F0CF960895A4
:1001900001970895FC01918D828D981761F0A28DD1
:1001A000AE0FBF2FB11D5D968C91928D9F5F9F7397
:1001B000928F90E008958FEF9FEF0895FC01918D4D
:1001C000828D981731F0828DE80FF11D858D90E0BA
:1001D00008958FEF9FEF0895FC01918D228D892F57
:1001E00090E0805C9F4F821B91098F73992708953F
:1001F0008BEB91E00E94EC0021E0892B09F420E0D8
:10020000822F089580E090E0892B29F00E94F80069
:1002100081110C9400000895FC01A48DA80FB92F42
:10022000B11DA35ABF4F2C91848D90E001968F731E
:100230009927848FA689B7892C93A089B1898C913D
:10024000837080648C93938D848D981306C002888C
:10025000F389E02D80818F7D80830895EF92FF9256
:100260000F931F93CF93DF93EC0181E0888F9B8DD9
:100270008C8D98131AC0E889F989808185FF15C093
:100280009FB7F894EE89FF896083E889F9898081B6
:100290008370806480839FBF81E090E0DF91CF9185
:1002A0001F910F91FF90EF900895F62E0B8D10E0A7
:1002B0000F5F1F4F0F731127E02E8C8D8E110CC016
:1002C0000FB607FCFACFE889F989808185FFF5CF61
:1002D000CE010E940C01F1CFEB8DEC0FFD2FF11D33
:1002E000E35AFF4FF0829FB7F8940B8FEA89FB899E
:1002F00080818062CFCFCF93DF93EC01888D8823FC
:10030000B9F0AA89BB89E889F9898C9185FD03C078
:10031000808186FD0DC00FB607FCF7CF8C9185FF5D
:10032000F2CF808185FFEDCFCE010E940C01E9CF95
:10033000DF91CF910895833081F028F4813099F0D6
:100340008230A9F008958730A9F08830C9F0843050
:10035000B1F4809180008F7D03C0809180008F7701
:1003600080938000089584B58F7784BD089584B507
:100370008F7DFBCF8091B0008F778093B000089580
:100380008091B0008F7DF9CF3FB7F8948091B7018D
:100390009091B801A091B901B091BA0126B5A89B7E
:1003A00005C02F3F19F00196A11DB11D3FBFBA2F07
:1003B000A92F982F8827BC01CD01620F711D811DC7
:1003C000911D42E0660F771F881F991F4A95D1F74C
:1003D00008950F931F93CF93DF938B01EC016A81F4
:1003E0007B816115710551F0CE01F8010995181650
:1003F000190624F00A80DB81C02DF1CFCE01DF91F8
:10040000CF911F910F9108954F925F926F927F92BB
:100410008F929F92AF92BF92CF92DF92EF92FF9214
:100420000F931F93CF93DF93FC01228133812230FE
:100430003105F4F05B016C012C01F4E04F0E511C0E
:100440007201F701C081D1812097D1F3B501CE01AE
:100450000E94E9014C01FC01028113810115110583
:10046000C1F4E414F50461F7F601978386831486DA
:10047000DF91CF911F910F91FF90EF90DF90CF9080
:10048000BF90AF909F908F907F906F905F904F90B4
:100490000895B501C8010E94E901FC0162807380E2
:1004A000F40113821282FC0113821282B801CE0180
:1004B000F5010995F701181619066CF0D183C08370
:1004C0007E01F2E0EF0EF11C8A819B81009781F49E
:1004D0001B830A831CC0118300837801F2E0EF0EB6
:1004E000F11CF801828193810097D1F08C01CE013B
:1004F000EC01DCCFEC018A819B810097D9F77B82EC
:100500006A827E01F2E0EF0EF11C9BCF8C01F801B4
:10051000828193810097D1F7738262827801F2CF52
:10052000D383C283E8CFCF93DF93EC01E881F981D5
:100530000480F581E02DCE0109951816190644F4C2
:10054000E881F9810288F389E02DCE010995EECF8B
:10055000DF91CF910895DC011496ED91FC911597F0
:100560001C968C911C978823B1F01A962D913C9182
:100570001B97621773077CF01896ED91FC91199701
:10058000261737075CF43097C1F00280F381E02D25
:100590002F5F3F4FF5CF30E020E0F2CF261737072F
:1005A00071F481E01C968C931C971B963C932E93C0
:1005B0001A971996FC93EE931897CF010895F0E0DF
:1005C000E0E0FBCFCF93DF9377FD10C0FC012281E9
:1005D00033816217730754F4EA010E94AB02FC01F5
:1005E000D183C08381E0DF91CF91089580E0FBCF7C
:1005F0000E94AB02009721F0FC0180819181089557
:1006000090E080E00895FC018281938108950F932A
:100610001F93CF93DF938B01EC016A817B8161157E
:10062000710551F0CE01F80109951816190624F04C
:100630000A80DB81C02DF1CFCE01DF91CF911F91D8
:100640000F9108954F925F926F927F928F929F9237
:10065000AF92BF92CF92DF92EF92FF920F931F93D0
:10066000CF93DF93FC012281338122303105F4F0F6
:100670005B016C012C01F4E04F0E511C7201F7017B
:10068000C081D1812097D1F3B501CE010E9407032B
:100690004C01FC010281138101151105C1F4E41420
:1006A000F50461F7F601978386831486DF91CF9175
:1006B0001F910F91FF90EF90DF90CF90BF90AF9080
:1006C0009F908F907F906F905F904F900895B501AD
:1006D000C8010E940703FC0162807380F401138249
:1006E0001282FC0113821282B801CE01F501099534
:1006F000F701181619066CF0D183C0837E01F2E071
:10070000EF0EF11C8A819B81009781F41B830A8381
:100710001CC0118300837801F2E0EF0EF11CF80198
:10072000828193810097D1F08C01CE01EC01DCCF66
:10073000EC018A819B810097D9F77B826A827E01D6
:10074000F2E0EF0EF11C9BCF8C01F80182819381C6
:100750000097D1F7738262827801F2CFD383C2838C
:10076000E8CFCF93DF93EC01E881F9810480F58134
:10077000E02DCE0109951816190644F4E881F98197
:100780000288F389E02DCE010995EECFDF91CF915C
:100790000895CF93DF9377FD10C0FC012281338150
:1007A0006217730754F4EA010E94AB02FC01D18383
:1007B000C08381E0DF91CF91089580E0FBCF0E945C
:1007C000AB02009721F0FC0180819181089590E0B7
:1007D00080E0089581E0089581E0089581E0089522
:1007E00081E0089581E0089581E0089581E0089511
:1007F00081E00895EF92FF920F931F93CF93DF93C1
:10080000DC0112960D911C9113970115110561F4ED
:10081000ED91FC910084F185E02DDF91CF911F9146
:100820000F91FF90EF9009947B01EC0184E090E040
:100830000E94380C2C813D81FC0133832283F1829C
:10084000E0829D838C830F5F1F4F1B830A831C866E
:1008500081E0DF91CF911F910F91FF90EF9008956C
:10086000EF92FF920F931F93CF93DF93DC011296C9
:100870000D911C9113970115110561F4ED91FC91F7
:100880000084F185E02DDF91CF911F910F91FF90B2
:10089000EF9009947B01EC0184E090E00E94380C19
:1008A0002C813D81FC0133832283F182E0829D8390
:1008B0008C830F5F1F4F1B830A831C8681E0DF91AF
:1008C000CF911F910F91FF90EF900895CF92DF92FB
:1008D000EF92FF920F931F93CF93DF93EB01BA0137
:1008E000DC0112964D915C911397C417D50774F0F3
:1008F000ED91FC910084F185E02DDF91CF911F9166
:100900000F91FF90EF90DF90CF900994209731F4F2
:10091000ED91FC910284F385E02DEFCF8B017C01FA
:1009200084E090E00E94380C6C01FC01118210827E
:1009300013821282BE0161507109C7010E94AB028D
:10094000D60111961C930E93FC01228133811396DC
:100950003C932E931297D382C282D70112968D9127
:100960009C911397019613969C938E9312971C96C5
:100970001C9281E0DF91CF911F910F91FF90EF903A
:10098000DF90CF9008950F931F93CF93DF93EC01E7
:100990008B0184E090E00E94380CFC0113821282EB
:1009A000118300832C813D81232B91F0EE81FF8107
:1009B000938382839F838E838A819B8101969B830D
:1009C0008A831C8681E0DF91CF911F910F9108955A
:1009D0009D838C83EFCFCF92DF92EF92FF920F93A4
:1009E0001F93CF93DF93EB01BA01DC0112964D9177
:1009F0005C911397C417D50774F0ED91FC910084B6
:100A0000F185E02DDF91CF911F910F91FF90EF9035
:100A1000DF90CF900994209731F4ED91FC910284FE
:100A2000F385E02DEFCF8B017C0184E090E00E9404
:100A3000380C6C01FC011182108213821282BE01FB
:100A400061507109C7010E94AB02D60111961C9337
:100A50000E93FC012281338113963C932E931297BF
:100A6000D382C282D70112968D919C9113970196E1
:100A700013969C938E9312971C961C9281E0DF91A3
:100A8000CF911F910F91FF90EF90DF90CF9008953D
:100A90000F931F93CF93DF93EC018B0184E090E0E1
:100AA0000E94380CFC0113821282118300832C8176
:100AB0003D81232B91F0EE81FF81938382839F837D
:100AC0008E838A819B8101969B838A831C8681E029
:100AD000DF91CF911F910F9108959D838C83EFCF6C
:100AE000EF92FF920F931F93CF93DF93EC017B0163
:100AF0008A0184E090E00E94380CBC01DC01119670
:100B0000FC92EE92F8018481958113969C938E93CA
:100B100012978A819B81DC01ED91FC910084F18523
:100B2000E02DDF91CF911F910F91FF90EF900994ED
:100B3000CF93DF93FC0101900020E9F73197AF01DB
:100B4000481B590BBC018BEB91E00E948E00EC011D
:100B500042E050E068E571E08BEB91E00E948E008E
:100B60008C0F9D1FDF91CF910895CF92DF92EF926E
:100B7000FF920F931F93CF93DF938BE591E00E9439
:100B800098052FE7C22E20E0D22EF60184913BEB90
:100B9000E32E30E0F32EF7010491C7EAD0E0FE0126
:100BA0001491112309F438C081110E949B01E12F97
:100BB000F0E0EE0FFF1FE859FF4FA591B4918C9123
:100BC000082391E080E009F490E0092F182FF60146
:100BD0008491F701E490FE01C491CC23A1F081112E
:100BE0000E949B01EC2FF0E0EE0FFF1FEA57FF4F32
:100BF000A591B4918FB7F8949C91012B81F0E0946A
:100C0000E922EC928FBFDF91CF911F910F91FF905E
:100C1000EF90DF90CF90089510E000E0D8CFE92A60
:100C2000F0CF83E691E00C9498058CE691E00C946B
:100C3000980585E791E00C9498058DE791E00C9478
:100C4000980587E891E00C94980580E991E00C9470
:100C5000980585E991E00C9498058FE991E00C9452
:100C60009805CF93DF93EC018EE091E09983888320
:100C70008C819D81009741F0FC01228133813D836D
:100C80002C830E94D40CF4CFDF91CF910895EF9282
:100C9000FF920F931F93CF93DF93DC0112962D9158
:100CA0003C911397121613064CF521303105D1F003
:100CB000EC018C819D81FC01E280F3800081118137
:100CC0000E94D40CFD82EC828A819B8101979B83D8
:100CD0008A831C86C801DF91CF911F910F91FF90ED
:100CE000EF900895ED91FC910088F189E02DDF915E
:100CF000CF911F910F91FF90EF90099410E000E0C9
:100D0000E9CFEF92FF920F931F93CF93DF93FC01F4
:100D10006281738110E000E016161706E4F4EC011E
:100D2000148661307105F9F0625071090E94AB02BE
:100D30007C01FC0182819381FC01008111810E9470
:100D4000D40CF70113821282FF82EE828A819B818A
:100D500001979B838A83C801DF91CF911F910F91E7
:100D6000FF90EF90089584819581FC0100811181AD
:100D70000E94D40C1D821C821F821E821B821A823A
:100D8000EACF0F931F93CF93DF9377FD41C0DC0130
:100D900012962D913C91139762177307CCF561154C
:100DA000710551F4ED91FC910288F389E02DDF91FA
:100DB000CF911F910F9109942150310926173707C0
:100DC00031F4ED91FC910088F189E02DF0CFEC0138
:100DD000615071090E94AB02DC011296ED91FC9109
:100DE0001397008111812281338113963C932E93B6
:100DF0001297CF010E94D40C8A819B8101979B831B
:100E00008A831C86C801DF91CF911F910F910895AD
:100E100010E000E0F7CFCF93DF93EC018EE391E099
:100E2000998388838C819D81009741F0FC01228108
:100E300033813D832C830E94D40CF4CFDF91CF917A
:100E40000895CF93DF93EC010E940B07CE01DF9151
:100E5000CF910C94D40CEF92FF920F931F93CF93EA
:100E6000DF93DC0112962D913C9113971216130615
:100E70004CF521303105D1F0EC018C819D81FC01D4
:100E8000E280F380008111810E94D40CFD82EC820B
:100E90008A819B8101979B838A831C86C801DF918D
:100EA000CF911F910F91FF90EF900895ED91FC91DC
:100EB0000088F189E02DDF91CF911F910F91FF9074
:100EC000EF90099410E000E0E9CFEF92FF920F93CA
:100ED0001F93CF93DF93FC016281738110E000E0E8
:100EE00016161706E4F4EC01148661307105F9F06A
:100EF000625071090E94AB027C01FC0182819381E6
:100F0000FC01008111810E94D40CF701138212822E
:100F1000FF82EE828A819B8101979B838A83C8012D
:100F2000DF91CF911F910F91FF90EF9008958481F1
:100F30009581FC01008111810E94D40C1D821C82CC
:100F40001F821E821B821A82EACF0F931F93CF93B8
:100F5000DF9377FD41C0DC0112962D913C911397F0
:100F600062177307CCF56115710551F4ED91FC9191
:100F70000288F389E02DDF91CF911F910F910994A1
:100F8000215031092617370731F4ED91FC91008883
:100F9000F189E02DF0CFEC01615071090E94AB02A4
:100FA000DC011296ED91FC91139700811181228151
:100FB000338113963C932E931297CF010E94D40C49
:100FC0008A819B8101979B838A831C86C801DF915C
:100FD000CF911F910F91089510E000E0F7CFCF93CC
:100FE000DF93EC010E943106CE01DF91CF910C948A
:100FF000D40C1F920F920FB60F9211242F933F9390
:101000004F935F936F937F938F939F93AF93BF9310
:10101000EF93FF938BEB91E00E940C01FF91EF9116
:10102000BF91AF919F918F917F916F915F914F9100
:101030003F912F910F900FBE0F901F9018951F9208
:101040000F920FB60F9211242F938F939F93EF93CC
:10105000FF93E091CB01F091CC018081E091D1012F
:10106000F091D20182FD1BC090818091D4018F5FED
:101070008F732091D501821741F0E091D401F0E007
:10108000E554FE4F958F8093D401FF91EF919F918E
:101090008F912F910F900FBE0F901F901895808108
:1010A000F4CF1F920F920FB60F9211242F933F93FC
:1010B0008F939F93AF93BF938091B3019091B401AD
:1010C000A091B501B091B6013091B20123E0230F98
:1010D0002D3758F50196A11DB11D2093B2018093C3
:1010E000B3019093B401A093B501B093B601809180
:1010F000B7019091B801A091B901B091BA010196E0
:10110000A11DB11D8093B7019093B801A093B901BF
:10111000B093BA01BF91AF919F918F913F912F9161
:101120000F900FBE0F901F90189526E8230F029680
:10113000A11DB11DD2CF0F931F93CF93DF938C01CD
:1011400086E090E00E94380CEC018DE090E00E9477
:10115000380CFC018EE091E091838083158214822B
:1011600017821682138212821186108613861286C7
:101170001486FB83EA83198308830AE612E0D80108
:101180008D919C91DC01ED91FC910084F185E02D25
:10119000BE010995F80180819181DC01ED91FC91FE
:1011A0000480F581E02D099501979D838C83CE0104
:1011B000DF91CF911F910F910895CF93DF93EBEBC8
:1011C000F1E01382128288EE93E0A0E0B0E0848325
:1011D0009583A683B7838CE291E09183808385EC2D
:1011E00090E09587848784EC90E09787868780ECF1
:1011F00090E0918B808B81EC90E0938B828B82ECE2
:1012000090E0958B848B86EC90E0978B868B118E8B
:10121000128E138E148ECAE6D2E081E08A838FEF9D
:101220009FEF9C838B838DE090E00E94380CFC0143
:101230008EE391E091838083158214821782168257
:101240001382128211861086138612861486F98301
:10125000E88385EB95E00E949B0890936902809358
:10126000680281E196E00E949B0890936702809358
:10127000660285E196E00E949B0890936502809348
:10128000640289E196E00E949B0890936302809338
:1012900062028DE196E00E949B0890936102809328
:1012A000600281E296E00E949B0890935F02809327
:1012B0005E0285E296E00E949B0890935D02809317
:1012C0005C0289E296E00E949B0890935B02809307
:1012D0005A028DE296E00E949B08909359028093F7
:1012E0005802DF91CF910895789484B5826084BDCF
:1012F00084B5816084BD85B5826085BD85B581601A
:1013000085BD80916E00816080936E001092810097
:101310008091810082608093810080918100816052
:101320008093810080918000816080938000809113
:10133000B10084608093B1008091B000816080939F
:10134000B00080917A00846080937A0080917A0066
:10135000826080937A0080917A00816080937A0025
:1013600080917A00806880937A001092C100E091A9
:10137000CB01F091CC0182E08083E091C701F09134
:10138000C8011082E091C901F091CA0180E1808317
:101390001092D301E091CF01F091D00186E08083DB
:1013A000E091CD01F091CE01808180618083E09158
:1013B000CD01F091CE01808188608083E091CD01E4
:1013C000F091CE01808180688083E091CD01F09121
:1013D000CE0180818F7D8083EBEBF0E02491E7EA02
:1013E000F0E08491882399F090E0880F991FFC0128
:1013F000E057FF4FA591B491FC01EA57FF4F85914B
:1014000094918FB7F894EC91E22BEC938FBF6EE040
:1014100070E080E090E00E94C60B4091660250911F
:10142000670268EF73E080916802909169020E9400
:101430007005409164025091650266EF73E08091FF
:101440006602909167020E9470054091620250917D
:10145000630264EF73E080916402909165020E94E0
:101460007005409160025091610262EF73E08091DB
:101470006202909163020E94700540915E02509159
:101480005F0260EF73E080916002909161020E94C0
:10149000700540915C0250915D026EEE73E08091A8
:1014A0005E0290915F020E94700540915A02509135
:1014B0005B026CEE73E080915C0290915D020E9491
:1014C000700540915802509159026AEE73E0809184
:1014D0005A0290915B020E947005409168025091FF
:1014E00069026CE870E080915802909159020E9464
:1014F000700590E0E92E90E0F92E80916A029091BB
:101500006B02DC01ED91FC910480F581E02D0995E1
:10151000892B09F469C080916D0290916E02019649
:1015200021F410926E0210926D02A0906D02B090A4
:101530006E0280916A0290916B02DC01ED91FC9148
:101540000488F589E02DB5010995EC01E881F98160
:1015500009958A819B81DC01ED91FC910480F581E4
:10156000E02D0995892B09F473C010E000E08A8111
:101570009B81DC01ED91FC910480F581E02D0995C2
:10158000081719070CF064C08A819B81DC01ED917A
:10159000FC910488F589E02DB8010995DC01ED91F5
:1015A000FC910995882309F450C08A819B81DC0154
:1015B000ED91FC910488F589E02DB8010995FC01B5
:1015C0008281938120916D0230916E02A216B30642
:1015D00059F421E0A816B90609F420E020936C0222
:1015E00090936E0280936D020E94C4012B013C0116
:1015F00088EE882E83E0982EA12CB12C0E94C40185
:101600006419750986099709683E7340810591053B
:10161000A8F3F1E08F1A9108A108B10828EE420E54
:1016200023E0521E611C711C81149104A104B104B9
:1016300029F7E114F10409F460CF0E94F80088232F
:1016400009F45BCF0E94000058CF0F5F1F4F8FCF70
:101650008C819D81B7CF8F929F92AF92BF92CF9294
:10166000DF92EF92FF92CF93DF93EC016881798153
:101670008A819B81611571058105910521F464E2E0
:1016800079ED8BE597E02DE133EF41E050E00E94EA
:10169000CF0B49015A019B01AC01A7EAB1E40E94BA
:1016A000EE0B6B017C01ACEEB4EFA50194010E943E
:1016B000FC0BC60ED71EE81EF91EF7FE06C081E021
:1016C000C81AD108E10880E8F80AC882D982EA82FB
:1016D000FB82C701B6019F77DF91CF91FF90EF901A
:1016E000DF90CF90BF90AF909F908F9008958F9292
:1016F0009F92AF92BF92CF92DF92EF92FF92609152
:101700000001709101018091020190910301611526
:1017100071058105910521F464E279ED8BE597E08F
:101720002DE133EF41E050E00E94CF0B49015A0117
:101730009B01AC01A7EAB1E40E94EE0B6B017C01B6
:10174000ACEEB4EFA50194010E94FC0BC60ED71EAF
:10175000E81EF91EF7FE06C081E0C81AD108E108AC
:1017600080E8F80AC0920001D0920101E0920201E3
:10177000F0920301C701B6019F77FF90EF90DF90D1
:10178000CF90BF90AF909F908F900895609300018D
:101790007093010180930201909303010895052E37
:1017A00097FB1EF400940E94E60B57FD07D00E94A1
:1017B000010C07FC03D04EF40C94E60B50954095B9
:1017C000309521953F4F4F4F5F4F089590958095ED
:1017D000709561957F4F8F4F9F4F08950E94230C06
:1017E000A59F900DB49F900DA49F800D911D112475
:1017F0000895B7FF0C94EE0B0E94EE0B821B930B27
:101800000895A1E21A2EAA1BBB1BFD010DC0AA1F41
:10181000BB1FEE1FFF1FA217B307E407F50720F059
:10182000A21BB30BE40BF50B661F771F881F991FD4
:101830001A9469F760957095809590959B01AC011D
:10184000BD01CF010895A29FB001B39FC001A39F26
:10185000700D811D1124911DB29F700D811D1124E9
:10186000911D0895EE0FFF1F0590F491E02D09944E
:101870000F931F93CF93DF938230910510F482E092
:1018800090E0E0917102F091720230E020E0B0E06F
:10189000A0E0309799F42115310509F44AC0281BBE
:1018A000390B24303105D8F58A819B81611571058A
:1018B00089F1FB0193838283FE0111C04081518134
:1018C0000281138148175907E0F04817590799F426
:1018D000109761F012960C93129713961C93329600
:1018E000CF01DF91CF911F910F9108950093710265
:1018F00010937202F4CF2115310551F042175307AE
:1019000038F0A901DB019A01BD01DF01F801C1CF67
:10191000EF01F9CF9093720280937102CDCFFE0157
:10192000E20FF31F81939193225031093983288369
:10193000D7CF20916F0230917002232B41F4209178
:101940000601309107013093700220936F022091BD
:101950000401309105012115310541F42DB73EB741
:101960004091080150910901241B350BE0916F0251
:10197000F0917002E217F307A0F42E1B3F0B28171B
:10198000390778F0AC014E5F5F4F2417350748F0F8
:101990004E0F5F1F5093700240936F02819391939B
:1019A0009FCFF0E0E0E09CCFCF93DF930097E9F08A
:1019B000FC01329713821282A0917102B0917202DF
:1019C000ED0130E020E01097A1F420813181820FF9
:1019D000931F20916F02309170022817390709F088
:1019E00061C0F0937002E0936F02DF91CF91089590
:1019F000EA01CE17DF07E8F54A815B819E014115B8
:101A00005105B1F7E901FB83EA8349915991C40F6C
:101A1000D51FEC17FD0761F4808191810296840F38
:101A2000951FE90199838883828193819B838A83AF
:101A3000F0E0E0E012968D919C9113970097B9F534
:101A40002D913C911197CD010296820F931F209109
:101A50006F02309170022817390739F6309751F527
:101A60001092720210927102B0937002A0936F02F2
:101A7000BCCFD383C28340815181840F951FC81787
:101A8000D90761F44E5F5F4F88819981480F591FD4
:101A9000518340838A819B81938382832115310501
:101AA00009F0B0CFF0937202E09371029ECFFD0176
:101AB000DC01C0CF13821282D7CFF894FFCF010090
:101AC0000000000073028000000000003106EF07F4
:101AD0000303EB044805FA03C903A50765072B07B1
:101AE000DF03B1032203000000002E018E00BB00C3
:101AF0007B01EC00CA00DE00000000000B0721079C
:101B000003036604C3043004E202C10681064706EB
:101B1000F802930204020D0A0053746174652030C8
:101B200000496E61637469766F0052656C6C656E16
:101B30006172004578747261657200436F6D706107
:101B400063746172004C6576616E74617200416C01
:101B5000746F005265696E696369617200506172E9
:101B60006F20646520656D657267656E63696100ED
:107E0000112484B714BE81FFF0D085E080938100F7
:107E100082E08093C00088E18093C10086E0809377
:107E2000C20080E18093C4008EE0C9D0259A86E02C
:107E300020E33CEF91E0309385002093840096BBD3
:107E4000B09BFECF1D9AA8958150A9F7CC24DD24C4
:107E500088248394B5E0AB2EA1E19A2EF3E0BF2EE7
:107E6000A2D0813461F49FD0082FAFD0023811F036
:107E7000013811F484E001C083E08DD089C08234E0
:107E800011F484E103C0853419F485E0A6D080C0E4
:107E9000853579F488D0E82EFF2485D0082F10E0AE
:107EA000102F00270E291F29000F111F8ED06801E7
:107EB0006FC0863521F484E090D080E0DECF843638
:107EC00009F040C070D06FD0082F6DD080E0C81688
:107ED00080E7D80618F4F601B7BEE895C0E0D1E017
:107EE00062D089930C17E1F7F0E0CF16F0E7DF06D8
:107EF00018F0F601B7BEE89568D007B600FCFDCFD4
:107F0000A601A0E0B1E02C9130E011968C91119780
:107F100090E0982F8827822B932B1296FA010C0160
:107F200087BEE89511244E5F5F4FF1E0A038BF0790
:107F300051F7F601A7BEE89507B600FCFDCF97BE46
:107F4000E89526C08437B1F42ED02DD0F82E2BD052
:107F50003CD0F601EF2C8F010F5F1F4F84911BD097
:107F6000EA94F801C1F70894C11CD11CFA94CF0C13
:107F7000D11C0EC0853739F428D08EE10CD085E9AC
:107F80000AD08FE07ACF813511F488E018D01DD067
:107F900080E101D065CF982F8091C00085FFFCCF94
:107FA0009093C60008958091C00087FFFCCF809118
:107FB000C00084FD01C0A8958091C6000895E0E648
:107FC000F0E098E1908380830895EDDF803219F02E
:107FD00088E0F5DFFFCF84E1DECF1F93182FE3DFCA
:107FE0001150E9F7F2DF1F91089580E0E8DFEE27F6
:047FF000FF270994CA
:027FFE00040479
:00000001FF
